{
	"data": {
		"bytecode": {
			"linkReferences": {},
			"object": "60806040523480156200001157600080fd5b506040516200091538038062000915833981810160405281019062000037919062000185565b80600090805190602001906200004f92919062000057565b50506200035a565b82805462000065906200026b565b90600052602060002090601f016020900481019282620000895760008555620000d5565b82601f10620000a457805160ff1916838001178555620000d5565b82800160010185558215620000d5579182015b82811115620000d4578251825591602001919060010190620000b7565b5b509050620000e49190620000e8565b5090565b5b8082111562000103576000816000905550600101620000e9565b5090565b60006200011e6200011884620001ff565b620001d6565b9050828152602081018484840111156200013d576200013c6200033a565b5b6200014a84828562000235565b509392505050565b600082601f8301126200016a576200016962000335565b5b81516200017c84826020860162000107565b91505092915050565b6000602082840312156200019e576200019d62000344565b5b600082015167ffffffffffffffff811115620001bf57620001be6200033f565b5b620001cd8482850162000152565b91505092915050565b6000620001e2620001f5565b9050620001f08282620002a1565b919050565b6000604051905090565b600067ffffffffffffffff8211156200021d576200021c62000306565b5b620002288262000349565b9050602081019050919050565b60005b838110156200025557808201518184015260208101905062000238565b8381111562000265576000848401525b50505050565b600060028204905060018216806200028457607f821691505b602082108114156200029b576200029a620002d7565b5b50919050565b620002ac8262000349565b810181811067ffffffffffffffff82111715620002ce57620002cd62000306565b5b80604052505050565b7f4e487b7100000000000000000000000000000000000000000000000000000000600052602260045260246000fd5b7f4e487b7100000000000000000000000000000000000000000000000000000000600052604160045260246000fd5b600080fd5b600080fd5b600080fd5b600080fd5b6000601f19601f8301169050919050565b6105ab806200036a6000396000f3fe608060405234801561001057600080fd5b50600436106100415760003560e01c80631a9564b3146100465780633b39db961461006457806341ae917a14610080575b600080fd5b61004e61009e565b60405161005b9190610399565b60405180910390f35b61007e60048036038101906100799190610281565b6100c6565b005b6100886100e0565b6040516100959190610399565b60405180910390f35b606060006040516020016100b29190610382565b604051602081830303815290604052905090565b80600090805190602001906100dc92919061016e565b5050565b600080546100ed9061048f565b80601f01602080910402602001604051908101604052809291908181526020018280546101199061048f565b80156101665780601f1061013b57610100808354040283529160200191610166565b820191906000526020600020905b81548152906001019060200180831161014957829003601f168201915b505050505081565b82805461017a9061048f565b90600052602060002090601f01602090048101928261019c57600085556101e3565b82601f106101b557805160ff19168380011785556101e3565b828001600101855582156101e3579182015b828111156101e25782518255916020019190600101906101c7565b5b5090506101f091906101f4565b5090565b5b8082111561020d5760008160009055506001016101f5565b5090565b600061022461021f846103e0565b6103bb565b9050828152602081018484840111156102405761023f610555565b5b61024b84828561044d565b509392505050565b600082601f83011261026857610267610550565b5b8135610278848260208601610211565b91505092915050565b6000602082840312156102975761029661055f565b5b600082013567ffffffffffffffff8111156102b5576102b461055a565b5b6102c184828501610253565b91505092915050565b60006102d582610426565b6102df8185610431565b93506102ef81856020860161045c565b6102f881610564565b840191505092915050565b600081546103108161048f565b61031a8186610442565b94506001821660008114610335576001811461034657610379565b60ff19831686528186019350610379565b61034f85610411565b60005b8381101561037157815481890152600182019150602081019050610352565b838801955050505b50505092915050565b600061038e8284610303565b915081905092915050565b600060208201905081810360008301526103b381846102ca565b905092915050565b60006103c56103d6565b90506103d182826104c1565b919050565b6000604051905090565b600067ffffffffffffffff8211156103fb576103fa610521565b5b61040482610564565b9050602081019050919050565b60008190508160005260206000209050919050565b600081519050919050565b600082825260208201905092915050565b600081905092915050565b82818337600083830152505050565b60005b8381101561047a57808201518184015260208101905061045f565b83811115610489576000848401525b50505050565b600060028204905060018216806104a757607f821691505b602082108114156104bb576104ba6104f2565b5b50919050565b6104ca82610564565b810181811067ffffffffffffffff821117156104e9576104e8610521565b5b80604052505050565b7f4e487b7100000000000000000000000000000000000000000000000000000000600052602260045260246000fd5b7f4e487b7100000000000000000000000000000000000000000000000000000000600052604160045260246000fd5b600080fd5b600080fd5b600080fd5b600080fd5b6000601f19601f830116905091905056fea2646970667358221220d596a221af2d312f99d788e760ec3d024e893534d68576b4d0d79dfedd34afab64736f6c63430008070033",
			"opcodes": "PUSH1 0x80 PUSH1 0x40 MSTORE CALLVALUE DUP1 ISZERO PUSH3 0x11 JUMPI PUSH1 0x0 DUP1 REVERT JUMPDEST POP PUSH1 0x40 MLOAD PUSH3 0x915 CODESIZE SUB DUP1 PUSH3 0x915 DUP4 CODECOPY DUP2 DUP2 ADD PUSH1 0x40 MSTORE DUP2 ADD SWAP1 PUSH3 0x37 SWAP2 SWAP1 PUSH3 0x185 JUMP JUMPDEST DUP1 PUSH1 0x0 SWAP1 DUP1 MLOAD SWAP1 PUSH1 0x20 ADD SWAP1 PUSH3 0x4F SWAP3 SWAP2 SWAP1 PUSH3 0x57 JUMP JUMPDEST POP POP PUSH3 0x35A JUMP JUMPDEST DUP3 DUP1 SLOAD PUSH3 0x65 SWAP1 PUSH3 0x26B JUMP JUMPDEST SWAP1 PUSH1 0x0 MSTORE PUSH1 0x20 PUSH1 0x0 KECCAK256 SWAP1 PUSH1 0x1F ADD PUSH1 0x20 SWAP1 DIV DUP2 ADD SWAP3 DUP3 PUSH3 0x89 JUMPI PUSH1 0x0 DUP6 SSTORE PUSH3 0xD5 JUMP JUMPDEST DUP3 PUSH1 0x1F LT PUSH3 0xA4 JUMPI DUP1 MLOAD PUSH1 0xFF NOT AND DUP4 DUP1 ADD OR DUP6 SSTORE PUSH3 0xD5 JUMP JUMPDEST DUP3 DUP1 ADD PUSH1 0x1 ADD DUP6 SSTORE DUP3 ISZERO PUSH3 0xD5 JUMPI SWAP2 DUP3 ADD JUMPDEST DUP3 DUP2 GT ISZERO PUSH3 0xD4 JUMPI DUP3 MLOAD DUP3 SSTORE SWAP2 PUSH1 0x20 ADD SWAP2 SWAP1 PUSH1 0x1 ADD SWAP1 PUSH3 0xB7 JUMP JUMPDEST JUMPDEST POP SWAP1 POP PUSH3 0xE4 SWAP2 SWAP1 PUSH3 0xE8 JUMP JUMPDEST POP SWAP1 JUMP JUMPDEST JUMPDEST DUP1 DUP3 GT ISZERO PUSH3 0x103 JUMPI PUSH1 0x0 DUP2 PUSH1 0x0 SWAP1 SSTORE POP PUSH1 0x1 ADD PUSH3 0xE9 JUMP JUMPDEST POP SWAP1 JUMP JUMPDEST PUSH1 0x0 PUSH3 0x11E PUSH3 0x118 DUP5 PUSH3 0x1FF JUMP JUMPDEST PUSH3 0x1D6 JUMP JUMPDEST SWAP1 POP DUP3 DUP2 MSTORE PUSH1 0x20 DUP2 ADD DUP5 DUP5 DUP5 ADD GT ISZERO PUSH3 0x13D JUMPI PUSH3 0x13C PUSH3 0x33A JUMP JUMPDEST JUMPDEST PUSH3 0x14A DUP5 DUP3 DUP6 PUSH3 0x235 JUMP JUMPDEST POP SWAP4 SWAP3 POP POP POP JUMP JUMPDEST PUSH1 0x0 DUP3 PUSH1 0x1F DUP4 ADD SLT PUSH3 0x16A JUMPI PUSH3 0x169 PUSH3 0x335 JUMP JUMPDEST JUMPDEST DUP2 MLOAD PUSH3 0x17C DUP5 DUP3 PUSH1 0x20 DUP7 ADD PUSH3 0x107 JUMP JUMPDEST SWAP2 POP POP SWAP3 SWAP2 POP POP JUMP JUMPDEST PUSH1 0x0 PUSH1 0x20 DUP3 DUP5 SUB SLT ISZERO PUSH3 0x19E JUMPI PUSH3 0x19D PUSH3 0x344 JUMP JUMPDEST JUMPDEST PUSH1 0x0 DUP3 ADD MLOAD PUSH8 0xFFFFFFFFFFFFFFFF DUP2 GT ISZERO PUSH3 0x1BF JUMPI PUSH3 0x1BE PUSH3 0x33F JUMP JUMPDEST JUMPDEST PUSH3 0x1CD DUP5 DUP3 DUP6 ADD PUSH3 0x152 JUMP JUMPDEST SWAP2 POP POP SWAP3 SWAP2 POP POP JUMP JUMPDEST PUSH1 0x0 PUSH3 0x1E2 PUSH3 0x1F5 JUMP JUMPDEST SWAP1 POP PUSH3 0x1F0 DUP3 DUP3 PUSH3 0x2A1 JUMP JUMPDEST SWAP2 SWAP1 POP JUMP JUMPDEST PUSH1 0x0 PUSH1 0x40 MLOAD SWAP1 POP SWAP1 JUMP JUMPDEST PUSH1 0x0 PUSH8 0xFFFFFFFFFFFFFFFF DUP3 GT ISZERO PUSH3 0x21D JUMPI PUSH3 0x21C PUSH3 0x306 JUMP JUMPDEST JUMPDEST PUSH3 0x228 DUP3 PUSH3 0x349 JUMP JUMPDEST SWAP1 POP PUSH1 0x20 DUP2 ADD SWAP1 POP SWAP2 SWAP1 POP JUMP JUMPDEST PUSH1 0x0 JUMPDEST DUP4 DUP2 LT ISZERO PUSH3 0x255 JUMPI DUP1 DUP3 ADD MLOAD DUP2 DUP5 ADD MSTORE PUSH1 0x20 DUP2 ADD SWAP1 POP PUSH3 0x238 JUMP JUMPDEST DUP4 DUP2 GT ISZERO PUSH3 0x265 JUMPI PUSH1 0x0 DUP5 DUP5 ADD MSTORE JUMPDEST POP POP POP POP JUMP JUMPDEST PUSH1 0x0 PUSH1 0x2 DUP3 DIV SWAP1 POP PUSH1 0x1 DUP3 AND DUP1 PUSH3 0x284 JUMPI PUSH1 0x7F DUP3 AND SWAP2 POP JUMPDEST PUSH1 0x20 DUP3 LT DUP2 EQ ISZERO PUSH3 0x29B JUMPI PUSH3 0x29A PUSH3 0x2D7 JUMP JUMPDEST JUMPDEST POP SWAP2 SWAP1 POP JUMP JUMPDEST PUSH3 0x2AC DUP3 PUSH3 0x349 JUMP JUMPDEST DUP2 ADD DUP2 DUP2 LT PUSH8 0xFFFFFFFFFFFFFFFF DUP3 GT OR ISZERO PUSH3 0x2CE JUMPI PUSH3 0x2CD PUSH3 0x306 JUMP JUMPDEST JUMPDEST DUP1 PUSH1 0x40 MSTORE POP POP POP JUMP JUMPDEST PUSH32 0x4E487B7100000000000000000000000000000000000000000000000000000000 PUSH1 0x0 MSTORE PUSH1 0x22 PUSH1 0x4 MSTORE PUSH1 0x24 PUSH1 0x0 REVERT JUMPDEST PUSH32 0x4E487B7100000000000000000000000000000000000000000000000000000000 PUSH1 0x0 MSTORE PUSH1 0x41 PUSH1 0x4 MSTORE PUSH1 0x24 PUSH1 0x0 REVERT JUMPDEST PUSH1 0x0 DUP1 REVERT JUMPDEST PUSH1 0x0 DUP1 REVERT JUMPDEST PUSH1 0x0 DUP1 REVERT JUMPDEST PUSH1 0x0 DUP1 REVERT JUMPDEST PUSH1 0x0 PUSH1 0x1F NOT PUSH1 0x1F DUP4 ADD AND SWAP1 POP SWAP2 SWAP1 POP JUMP JUMPDEST PUSH2 0x5AB DUP1 PUSH3 0x36A PUSH1 0x0 CODECOPY PUSH1 0x0 RETURN INVALID PUSH1 0x80 PUSH1 0x40 MSTORE CALLVALUE DUP1 ISZERO PUSH2 0x10 JUMPI PUSH1 0x0 DUP1 REVERT JUMPDEST POP PUSH1 0x4 CALLDATASIZE LT PUSH2 0x41 JUMPI PUSH1 0x0 CALLDATALOAD PUSH1 0xE0 SHR DUP1 PUSH4 0x1A9564B3 EQ PUSH2 0x46 JUMPI DUP1 PUSH4 0x3B39DB96 EQ PUSH2 0x64 JUMPI DUP1 PUSH4 0x41AE917A EQ PUSH2 0x80 JUMPI JUMPDEST PUSH1 0x0 DUP1 REVERT JUMPDEST PUSH2 0x4E PUSH2 0x9E JUMP JUMPDEST PUSH1 0x40 MLOAD PUSH2 0x5B SWAP2 SWAP1 PUSH2 0x399 JUMP JUMPDEST PUSH1 0x40 MLOAD DUP1 SWAP2 SUB SWAP1 RETURN JUMPDEST PUSH2 0x7E PUSH1 0x4 DUP1 CALLDATASIZE SUB DUP2 ADD SWAP1 PUSH2 0x79 SWAP2 SWAP1 PUSH2 0x281 JUMP JUMPDEST PUSH2 0xC6 JUMP JUMPDEST STOP JUMPDEST PUSH2 0x88 PUSH2 0xE0 JUMP JUMPDEST PUSH1 0x40 MLOAD PUSH2 0x95 SWAP2 SWAP1 PUSH2 0x399 JUMP JUMPDEST PUSH1 0x40 MLOAD DUP1 SWAP2 SUB SWAP1 RETURN JUMPDEST PUSH1 0x60 PUSH1 0x0 PUSH1 0x40 MLOAD PUSH1 0x20 ADD PUSH2 0xB2 SWAP2 SWAP1 PUSH2 0x382 JUMP JUMPDEST PUSH1 0x40 MLOAD PUSH1 0x20 DUP2 DUP4 SUB SUB DUP2 MSTORE SWAP1 PUSH1 0x40 MSTORE SWAP1 POP SWAP1 JUMP JUMPDEST DUP1 PUSH1 0x0 SWAP1 DUP1 MLOAD SWAP1 PUSH1 0x20 ADD SWAP1 PUSH2 0xDC SWAP3 SWAP2 SWAP1 PUSH2 0x16E JUMP JUMPDEST POP POP JUMP JUMPDEST PUSH1 0x0 DUP1 SLOAD PUSH2 0xED SWAP1 PUSH2 0x48F JUMP JUMPDEST DUP1 PUSH1 0x1F ADD PUSH1 0x20 DUP1 SWAP2 DIV MUL PUSH1 0x20 ADD PUSH1 0x40 MLOAD SWAP1 DUP2 ADD PUSH1 0x40 MSTORE DUP1 SWAP3 SWAP2 SWAP1 DUP2 DUP2 MSTORE PUSH1 0x20 ADD DUP3 DUP1 SLOAD PUSH2 0x119 SWAP1 PUSH2 0x48F JUMP JUMPDEST DUP1 ISZERO PUSH2 0x166 JUMPI DUP1 PUSH1 0x1F LT PUSH2 0x13B JUMPI PUSH2 0x100 DUP1 DUP4 SLOAD DIV MUL DUP4 MSTORE SWAP2 PUSH1 0x20 ADD SWAP2 PUSH2 0x166 JUMP JUMPDEST DUP3 ADD SWAP2 SWAP1 PUSH1 0x0 MSTORE PUSH1 0x20 PUSH1 0x0 KECCAK256 SWAP1 JUMPDEST DUP2 SLOAD DUP2 MSTORE SWAP1 PUSH1 0x1 ADD SWAP1 PUSH1 0x20 ADD DUP1 DUP4 GT PUSH2 0x149 JUMPI DUP3 SWAP1 SUB PUSH1 0x1F AND DUP3 ADD SWAP2 JUMPDEST POP POP POP POP POP DUP2 JUMP JUMPDEST DUP3 DUP1 SLOAD PUSH2 0x17A SWAP1 PUSH2 0x48F JUMP JUMPDEST SWAP1 PUSH1 0x0 MSTORE PUSH1 0x20 PUSH1 0x0 KECCAK256 SWAP1 PUSH1 0x1F ADD PUSH1 0x20 SWAP1 DIV DUP2 ADD SWAP3 DUP3 PUSH2 0x19C JUMPI PUSH1 0x0 DUP6 SSTORE PUSH2 0x1E3 JUMP JUMPDEST DUP3 PUSH1 0x1F LT PUSH2 0x1B5 JUMPI DUP1 MLOAD PUSH1 0xFF NOT AND DUP4 DUP1 ADD OR DUP6 SSTORE PUSH2 0x1E3 JUMP JUMPDEST DUP3 DUP1 ADD PUSH1 0x1 ADD DUP6 SSTORE DUP3 ISZERO PUSH2 0x1E3 JUMPI SWAP2 DUP3 ADD JUMPDEST DUP3 DUP2 GT ISZERO PUSH2 0x1E2 JUMPI DUP3 MLOAD DUP3 SSTORE SWAP2 PUSH1 0x20 ADD SWAP2 SWAP1 PUSH1 0x1 ADD SWAP1 PUSH2 0x1C7 JUMP JUMPDEST JUMPDEST POP SWAP1 POP PUSH2 0x1F0 SWAP2 SWAP1 PUSH2 0x1F4 JUMP JUMPDEST POP SWAP1 JUMP JUMPDEST JUMPDEST DUP1 DUP3 GT ISZERO PUSH2 0x20D JUMPI PUSH1 0x0 DUP2 PUSH1 0x0 SWAP1 SSTORE POP PUSH1 0x1 ADD PUSH2 0x1F5 JUMP JUMPDEST POP SWAP1 JUMP JUMPDEST PUSH1 0x0 PUSH2 0x224 PUSH2 0x21F DUP5 PUSH2 0x3E0 JUMP JUMPDEST PUSH2 0x3BB JUMP JUMPDEST SWAP1 POP DUP3 DUP2 MSTORE PUSH1 0x20 DUP2 ADD DUP5 DUP5 DUP5 ADD GT ISZERO PUSH2 0x240 JUMPI PUSH2 0x23F PUSH2 0x555 JUMP JUMPDEST JUMPDEST PUSH2 0x24B DUP5 DUP3 DUP6 PUSH2 0x44D JUMP JUMPDEST POP SWAP4 SWAP3 POP POP POP JUMP JUMPDEST PUSH1 0x0 DUP3 PUSH1 0x1F DUP4 ADD SLT PUSH2 0x268 JUMPI PUSH2 0x267 PUSH2 0x550 JUMP JUMPDEST JUMPDEST DUP2 CALLDATALOAD PUSH2 0x278 DUP5 DUP3 PUSH1 0x20 DUP7 ADD PUSH2 0x211 JUMP JUMPDEST SWAP2 POP POP SWAP3 SWAP2 POP POP JUMP JUMPDEST PUSH1 0x0 PUSH1 0x20 DUP3 DUP5 SUB SLT ISZERO PUSH2 0x297 JUMPI PUSH2 0x296 PUSH2 0x55F JUMP JUMPDEST JUMPDEST PUSH1 0x0 DUP3 ADD CALLDATALOAD PUSH8 0xFFFFFFFFFFFFFFFF DUP2 GT ISZERO PUSH2 0x2B5 JUMPI PUSH2 0x2B4 PUSH2 0x55A JUMP JUMPDEST JUMPDEST PUSH2 0x2C1 DUP5 DUP3 DUP6 ADD PUSH2 0x253 JUMP JUMPDEST SWAP2 POP POP SWAP3 SWAP2 POP POP JUMP JUMPDEST PUSH1 0x0 PUSH2 0x2D5 DUP3 PUSH2 0x426 JUMP JUMPDEST PUSH2 0x2DF DUP2 DUP6 PUSH2 0x431 JUMP JUMPDEST SWAP4 POP PUSH2 0x2EF DUP2 DUP6 PUSH1 0x20 DUP7 ADD PUSH2 0x45C JUMP JUMPDEST PUSH2 0x2F8 DUP2 PUSH2 0x564 JUMP JUMPDEST DUP5 ADD SWAP2 POP POP SWAP3 SWAP2 POP POP JUMP JUMPDEST PUSH1 0x0 DUP2 SLOAD PUSH2 0x310 DUP2 PUSH2 0x48F JUMP JUMPDEST PUSH2 0x31A DUP2 DUP7 PUSH2 0x442 JUMP JUMPDEST SWAP5 POP PUSH1 0x1 DUP3 AND PUSH1 0x0 DUP2 EQ PUSH2 0x335 JUMPI PUSH1 0x1 DUP2 EQ PUSH2 0x346 JUMPI PUSH2 0x379 JUMP JUMPDEST PUSH1 0xFF NOT DUP4 AND DUP7 MSTORE DUP2 DUP7 ADD SWAP4 POP PUSH2 0x379 JUMP JUMPDEST PUSH2 0x34F DUP6 PUSH2 0x411 JUMP JUMPDEST PUSH1 0x0 JUMPDEST DUP4 DUP2 LT ISZERO PUSH2 0x371 JUMPI DUP2 SLOAD DUP2 DUP10 ADD MSTORE PUSH1 0x1 DUP3 ADD SWAP2 POP PUSH1 0x20 DUP2 ADD SWAP1 POP PUSH2 0x352 JUMP JUMPDEST DUP4 DUP9 ADD SWAP6 POP POP POP JUMPDEST POP POP POP SWAP3 SWAP2 POP POP JUMP JUMPDEST PUSH1 0x0 PUSH2 0x38E DUP3 DUP5 PUSH2 0x303 JUMP JUMPDEST SWAP2 POP DUP2 SWAP1 POP SWAP3 SWAP2 POP POP JUMP JUMPDEST PUSH1 0x0 PUSH1 0x20 DUP3 ADD SWAP1 POP DUP2 DUP2 SUB PUSH1 0x0 DUP4 ADD MSTORE PUSH2 0x3B3 DUP2 DUP5 PUSH2 0x2CA JUMP JUMPDEST SWAP1 POP SWAP3 SWAP2 POP POP JUMP JUMPDEST PUSH1 0x0 PUSH2 0x3C5 PUSH2 0x3D6 JUMP JUMPDEST SWAP1 POP PUSH2 0x3D1 DUP3 DUP3 PUSH2 0x4C1 JUMP JUMPDEST SWAP2 SWAP1 POP JUMP JUMPDEST PUSH1 0x0 PUSH1 0x40 MLOAD SWAP1 POP SWAP1 JUMP JUMPDEST PUSH1 0x0 PUSH8 0xFFFFFFFFFFFFFFFF DUP3 GT ISZERO PUSH2 0x3FB JUMPI PUSH2 0x3FA PUSH2 0x521 JUMP JUMPDEST JUMPDEST PUSH2 0x404 DUP3 PUSH2 0x564 JUMP JUMPDEST SWAP1 POP PUSH1 0x20 DUP2 ADD SWAP1 POP SWAP2 SWAP1 POP JUMP JUMPDEST PUSH1 0x0 DUP2 SWAP1 POP DUP2 PUSH1 0x0 MSTORE PUSH1 0x20 PUSH1 0x0 KECCAK256 SWAP1 POP SWAP2 SWAP1 POP JUMP JUMPDEST PUSH1 0x0 DUP2 MLOAD SWAP1 POP SWAP2 SWAP1 POP JUMP JUMPDEST PUSH1 0x0 DUP3 DUP3 MSTORE PUSH1 0x20 DUP3 ADD SWAP1 POP SWAP3 SWAP2 POP POP JUMP JUMPDEST PUSH1 0x0 DUP2 SWAP1 POP SWAP3 SWAP2 POP POP JUMP JUMPDEST DUP3 DUP2 DUP4 CALLDATACOPY PUSH1 0x0 DUP4 DUP4 ADD MSTORE POP POP POP JUMP JUMPDEST PUSH1 0x0 JUMPDEST DUP4 DUP2 LT ISZERO PUSH2 0x47A JUMPI DUP1 DUP3 ADD MLOAD DUP2 DUP5 ADD MSTORE PUSH1 0x20 DUP2 ADD SWAP1 POP PUSH2 0x45F JUMP JUMPDEST DUP4 DUP2 GT ISZERO PUSH2 0x489 JUMPI PUSH1 0x0 DUP5 DUP5 ADD MSTORE JUMPDEST POP POP POP POP JUMP JUMPDEST PUSH1 0x0 PUSH1 0x2 DUP3 DIV SWAP1 POP PUSH1 0x1 DUP3 AND DUP1 PUSH2 0x4A7 JUMPI PUSH1 0x7F DUP3 AND SWAP2 POP JUMPDEST PUSH1 0x20 DUP3 LT DUP2 EQ ISZERO PUSH2 0x4BB JUMPI PUSH2 0x4BA PUSH2 0x4F2 JUMP JUMPDEST JUMPDEST POP SWAP2 SWAP1 POP JUMP JUMPDEST PUSH2 0x4CA DUP3 PUSH2 0x564 JUMP JUMPDEST DUP2 ADD DUP2 DUP2 LT PUSH8 0xFFFFFFFFFFFFFFFF DUP3 GT OR ISZERO PUSH2 0x4E9 JUMPI PUSH2 0x4E8 PUSH2 0x521 JUMP JUMPDEST JUMPDEST DUP1 PUSH1 0x40 MSTORE POP POP POP JUMP JUMPDEST PUSH32 0x4E487B7100000000000000000000000000000000000000000000000000000000 PUSH1 0x0 MSTORE PUSH1 0x22 PUSH1 0x4 MSTORE PUSH1 0x24 PUSH1 0x0 REVERT JUMPDEST PUSH32 0x4E487B7100000000000000000000000000000000000000000000000000000000 PUSH1 0x0 MSTORE PUSH1 0x41 PUSH1 0x4 MSTORE PUSH1 0x24 PUSH1 0x0 REVERT JUMPDEST PUSH1 0x0 DUP1 REVERT JUMPDEST PUSH1 0x0 DUP1 REVERT JUMPDEST PUSH1 0x0 DUP1 REVERT JUMPDEST PUSH1 0x0 DUP1 REVERT JUMPDEST PUSH1 0x0 PUSH1 0x1F NOT PUSH1 0x1F DUP4 ADD AND SWAP1 POP SWAP2 SWAP1 POP JUMP INVALID LOG2 PUSH5 0x6970667358 0x22 SLT KECCAK256 0xD5 SWAP7 LOG2 0x21 0xAF 0x2D BALANCE 0x2F SWAP10 0xD7 DUP9 0xE7 PUSH1 0xEC RETURNDATASIZE MUL 0x4E DUP10 CALLDATALOAD CALLVALUE 0xD6 DUP6 PUSH23 0xB4D0D79DFEDD34AFAB64736F6C63430008070033000000 "
		},
		"gasEstimates": {
			"creation": {
				"codeDepositCost": "290200",
				"executionCost": "infinite",
				"totalCost": "infinite"
			},
			"external": {
				"createNewStudent(string)": "infinite",
				"getNewStudent()": "infinite",
				"zuriStudentGreeting()": "infinite"
			}
		},
		"methodIdentifiers": {
			"createNewStudent(string)": "3b39db96",
			"getNewStudent()": "1a9564b3",
			"zuriStudentGreeting()": "41ae917a"
		}
	},
	"abi": [
		{
			"inputs": [
				{
					"internalType": "string",
					"name": "zuriNewStudentGreeting",
					"type": "string"
				}
			],
			"stateMutability": "nonpayable",
			"type": "constructor"
		},
		{
			"inputs": [
				{
					"internalType": "string",
					"name": "newZuriStudentGreeting",
					"type": "string"
				}
			],
			"name": "createNewStudent",
			"outputs": [],
			"stateMutability": "nonpayable",
			"type": "function"
		},
		{
			"inputs": [],
			"name": "getNewStudent",
			"outputs": [
				{
					"internalType": "string",
					"name": "",
					"type": "string"
				}
			],
			"stateMutability": "view",
			"type": "function"
		},
		{
			"inputs": [],
			"name": "zuriStudentGreeting",
			"outputs": [
				{
					"internalType": "string",
					"name": "",
					"type": "string"
				}
			],
			"stateMutability": "view",
			"type": "function"
		}
	]
}